:020000040800F2
:1000000000C00020811B0008091500080B1500081E
:100010000D1500080F15000811150008000000005C
:1000200000000000000000000000000013150008A0
:100030001515000800000000171500081915000824
:10004000C91B0008C91B0008C91B0008C91B000800
:10005000C91B0008C91B0008C91B0008C91B0008F0
:10006000C91B0008C91B0008C91B0008C91B0008E0
:10007000C91B0008C91B0008C91B0008C91B0008D0
:10008000C91B0008C91B0008C91B0008C91B0008C0
:10009000C91B0008C91B0008C91B0008C91B0008B0
:1000A000C91B0008C91B0008C91B0008C91B0008A0
:1000B000C91B0008C91B0008C91B0008C91B000890
:1000C000C91B0008C91B0008C91B0008C91B000880
:1000D000C91B000821150008C91B0008C91B00081E
:1000E000C91B0008C91B0008C91B0008C91B000860
:1000F000C91B0008C91B0008C91B0008C91B000850
:10010000C91B0008C91B0008C91B0008C91B00083F
:10011000C91B0008C91B0008C91B0008C91B00082F
:10012000C91B0008C91B0008C91B0008C91B00081F
:1001300000000000000000000000000000000000BF
:1001400000000000000000000000000000000000AF
:10015000000000000000000000000000000000009F
:10016000000000000000000000000000000000008F
:10017000000000000000000000000000000000007F
:10018000000000000000000000000000000000006F
:10019000000000000000000000000000000000005F
:1001A000000000000000000000000000000000004F
:1001B000000000000000000000000000000000003F
:1001C000000000000000000000000000000000002F
:1001D000000000000000000000000000000000001F
:0401E0005FF8E0F1F3
:1001E80081F0004102E000BF83F0004330B54FEAE0
:1001F80041044FEA430594EA050F08BF90EA020F4D
:100208001FBF54EA000C55EA020C7FEA645C7FEADF
:10021800655C00F0E2804FEA5454D4EB5555B8BF02
:100228006D420CDD2C4480EA020281EA030382EA73
:10023800000083EA010180EA020281EA0303362D05
:1002480088BF30BD11F0004F4FEA01314FF4801CD8
:100258004CEA113102D0404261EB410113F0004FEA
:100268004FEA03334CEA133302D0524263EB4303A1
:1002780094EA050F00F0A780A4F10104D5F1200E3F
:100288000DDB02FA0EFC22FA05F2801841F100019A
:1002980003FA0EF2801843FA05F359410EE0A5F16E
:1002A80020050EF1200E012A03FA0EFC28BF4CF09F
:1002B800020C43FA05F3C01851EBE37101F0004555
:1002C80007D54FF0000EDCF1000C7EEB00006EEB62
:1002D8000101B1F5801F1BD3B1F5001F0CD34908EC
:1002E8005FEA30004FEA3C0C04F101044FEA445243
:1002F80012F5800F80F09A80BCF1004F08BF5FEACA
:10030800500C50F1000041EB045141EA050130BDA9
:100318005FEA4C0C404141EB0101013C28BFB1F5BB
:10032800801FE9D291F0000F04BF01460020B1FA06
:1003380081F308BF2033A3F10B03B3F120020CDAD9
:100348000C3208DD02F1140CC2F10C0201FA0CF0B7
:1003580021FA02F10CE002F11402D8BFC2F1200C1C
:1003680001FA02F120FA0CFCDCBF41EA0C019040D2
:10037800E41AA2BF01EB0451294330BD6FEA04041B
:100388001F3C1CDA0C340EDC04F11404C4F1200206
:1003980020FA04F001FA02F340EA030021FA04F318
:1003A80045EA030130BDC4F10C04C4F1200220FA6F
:1003B80002F001FA04F340EA0300294630BD21FAAD
:1003C80004F0294630BD94F0000F83F4801306BF73
:1003D80081F480110134013D4EE77FEA645C18BF67
:1003E8007FEA655C29D094EA050F08BF90EA020FFE
:1003F80005D054EA000C04BF1946104630BD91EAF6
:10040800030F1EBF0021002030BD5FEA545C05D1F8
:100418004000494128BF41F0004130BD14F5800437
:100428003CBF01F5801130BD01F0004545F0FE41AB
:1004380041F470014FF0000030BD7FEA645C1ABFE0
:10044800194610467FEA655C1CBF0B46024650EA17
:10045800013406BF52EA033591EA030F41F4002143
:1004680030BD00BF90F0000F04BF0021704730B5C9
:100478004FF4806404F132044FF000054FF000019E
:1004880050E700BF90F0000F04BF0021704730B55F
:100498004FF4806404F1320410F0004548BF404234
:1004A8004FF000013EE700BF42004FEAE2014FEA89
:1004B80031014FEA02701FBF12F07F4393F07F4F64
:1004C80081F06051704732F07F4208BF704793F067
:1004D8007F4F04BF41F40021704730B54FF460747A
:1004E80001F0004521F000411CE700BF50EA01027D
:1004F80008BF704730B54FF000050AE050EA010226
:1005080008BF704730B511F0004502D5404261EB95
:1005180041014FF4806404F132045FEA915C3FF4D6
:10052800D8AE4FF003025FEADC0C18BF03325FEA73
:10053800DC0C18BF033202EBDC02C2F1200300FA24
:1005480003FC20FA02F001FA03FE40EA0E0021FA49
:1005580002F11444BDE600BF70B54FF0FF0C4CF437
:10056800E06C1CEA11541DBF1CEA135594EA0C0FE9
:1005780095EA0C0F00F0DEF82C4481EA030621EA24
:100588004C5123EA4C5350EA013518BF52EA03355F
:1005980041F4801143F4801338D0A0FB02CE4FF011
:1005A8000005E1FB02E506F00042E0FB03E54FF041
:1005B8000006E1FB03569CF0000F18BF4EF0010E39
:1005C800A4F1FF04B6F5007F64F5407404D25FEA35
:1005D8004E0E6D4146EB060642EAC62141EA5551E8
:1005E8004FEAC52040EA5E504FEACE2EB4F1FD0C2A
:1005F80088BFBCF5E06F1ED8BEF1004F08BF5FEAA8
:10060800500E50F1000041EB045170BD06F0004659
:1006180046EA010140EA020081EA0301B4EB5C0406
:10062800C2BFD4EB0C0541EA045170BD41F48011FE
:100638004FF0000E013C00F3AB8014F1360FDEBF23
:10064800002001F0004170BDC4F10004203C35DAFF
:100658000C341BDC04F11404C4F1200500FA05F382
:1006680020FA04F001FA05F240EA020001F0004223
:1006780021F0004110EBD37021FA04F642EB060199
:100688005EEA430E08BF20EAD37070BDC4F10C04C3
:10069800C4F1200500FA04F320FA05F001FA04F287
:1006A80040EA020001F0004110EBD37041F1000173
:1006B8005EEA430E08BF20EAD37070BDC4F120057E
:1006C80000FA05F24EEA020E20FA04F301FA05F2E6
:1006D80043EA020321FA04F001F0004121FA04F28E
:1006E80020EA020000EBD3705EEA430E08BF20EA5E
:1006F800D37070BD94F0000F0FD101F00046400098
:1007080041EB010111F4801F08BF013CF7D041EA19
:10071800060195F0000F18BF704703F0004652001D
:1007280043EB030313F4801F08BF013DF7D043EAEE
:100738000603704794EA0C0F0CEA135518BF95EAA4
:100748000C0F0CD050EA410618BF52EA4306D1D12B
:1007580081EA030101F000414FF0000070BD50EA4A
:10076800410606BF1046194652EA430619D094EAD4
:100778000C0F02D150EA013613D195EA0C0F05D1BE
:1007880052EA03361CBF104619460AD181EA030112
:1007980001F0004141F0FE4141F470014FF00000CA
:1007A80070BD41F0FE4141F4780170BD70B54FF065
:1007B800FF0C4CF4E06C1CEA11541DBF1CEA1355E5
:1007C80094EA0C0F95EA0C0F00F0A7F8A4EB0504C7
:1007D80081EA030E52EA03354FEA013100F08880BE
:1007E8004FEA03334FF0805545EA131343EA126387
:1007F8004FEA022245EA111545EA10654FEA00263C
:100808000EF000419D4208BF964244F1FD0404F5F4
:10081800407402D25B084FEA3202B61A65EB030550
:100828005B084FEA32024FF480104FF4002CB6EB0D
:10083800020E75EB030E22BFB61A754640EA0C008D
:100848005B084FEA3202B6EB020E75EB030E22BFCD
:10085800B61A754640EA5C005B084FEA3202B6EB0E
:10086800020E75EB030E22BFB61A754640EA9C00CD
:100878005B084FEA3202B6EB020E75EB030E22BF9D
:10088800B61A754640EADC0055EA060E18D04FEA5B
:10089800051545EA16754FEA06164FEAC30343EAFB
:1008A80052734FEAC2025FEA1C1CC0D111F4801FC8
:1008B8000BD141EA00014FF000004FF0004CB6E7C1
:1008C80011F4801F04BF01430020B4F1FD0C88BF60
:1008D800BCF5E06F3FF6AFAEB5EB030C04BFB6EB6B
:1008E800020C5FEA500C50F1000041EB045170BD5E
:1008F8000EF0004E4EEA113114EB5C04C2BFD4EB8B
:100908000C0541EA045170BD41F480114FF0000E0E
:10091800013C90E645EA060E8DE60CEA135594EA8A
:100928000C0F08BF95EA0C0F3FF43BAF94EA0C0F8D
:100938000AD150EA01347FF434AF95EA0C0F7FF402
:1009480025AF104619462CE795EA0C0F06D152EA56
:1009580003353FF4FDAE1046194622E750EA41063A
:1009680018BF52EA43067FF4C5AE50EA41047FF44B
:100978000DAF52EA43057FF4EBAE12E74FF0FF3CB0
:1009880006E000BF4FF0010C02E000BF4FF0010C81
:100998004DF804CD4FEA410C7FEA6C5C4FEA430CFA
:1009A80018BF7FEA6C5C1BD001B050EA410C0CBF49
:1009B80052EA430C91EA030F02BF90EA020F0020AB
:1009C800704710F1000F91EA030F58BF994208BF12
:1009D80090422CBFD8176FEAE37040F001007047CF
:1009E8004FEA410C7FEA6C5C02D150EA013C07D126
:1009F8004FEA430C7FEA6C5CD6D152EA033CD3D071
:100A08005DF8040B704700BF8446104662468C466A
:100A18001946634600E000BF01B5FFF7B7FF00289D
:100A280048BF10F1000F01BD4DF808EDFFF7F4FFC6
:100A38000CBF012000205DF808FB00BF4DF808ED51
:100A4800FFF7EAFF34BF012000205DF808FB00BF74
:100A58004DF808EDFFF7E0FF94BF012000205DF896
:100A680008FB00BF4DF808EDFFF7CEFF94BF01204B
:100A780000205DF808FB00BF4DF808EDFFF7C4FF44
:100A880034BF012000205DF808FB00BF4A0011D2E6
:100A980012F5001211D20DD56FF47873B3EB6252D0
:100AA8000ED44FEAC12343F0004343EA505323FADC
:100AB80002F070474FF00000704750EA013002D151
:100AC8004FF0FF3070474FF000007047844641EA0E
:100AD800000313F0030349D1403A23D30B680360A2
:100AE8004B6843608B688360CB68C3600B690361A4
:100AF8004B6943618B698361CB69C3610B6A03628C
:100B08004B6A43628B6A8362CB6AC3620B6B036373
:100B18004B6B43638B6B8363CB6BC3634030403158
:100B2800403ADBD230320BD30B6803604B6843602A
:100B38008B688360CB68C36010301031103AF3D2F1
:100B48000C3205D351F8043B40F8043B043AF9D27F
:100B5800043208D0D2071CBF11F8013B00F8013B52
:100B680001D30B8803806046704700BF082A13D35F
:100B78008B07B1D010F00303AED0C3F10403D21A2F
:100B8800DB071CBF11F8013B00F8013BA4D331F887
:100B9800023B20F8023B9FE7043AD9D3013A11F807
:100BA800013B00F8013BF9D20B7803704B78437096
:100BB8008B788370604670470348044B834202D0A9
:100BC800034B03B1184770471000002010000020A5
:100BD800000000000548064B1B1AD90F01EBA301C2
:100BE800491002D0034B03B118477047100000208A
:100BF800100000200000000010B5064C237843B90F
:100C0800FFF7DAFF044B13B10448AFF30080012368
:100C1800237010BD100000200000000024370008D9
:100C280008B5054B1BB105490548AFF30080BDE881
:100C38000840FFF7CFBF00BF0000000014000020ED
:100C480024370008F0B589B000240494059406946C
:100C58000794234B9A6942F010029A619A6902F04C
:100C680010020092009A9A6942F020029A619A69E9
:100C780002F020020192019A9A6942F004029A61F4
:100C88009A6902F004020292029A9A6942F00802F2
:100C98009A619B6903F008030393039B114D224655
:100CA8000221284601F05AFA01220C21284601F0B7
:100CB80055FA0226049601270597069603230793FB
:100CC80004A9284601F02EF90C23049305970694ED
:100CD800079604A9284601F025F909B0F0BD00BF20
:100CE80000100240001001402DE9F04FA3B0421C53
:100CF80001E0821C013003782B2BFAD113784C2B9E
:100D08001DD06C2B1BD0532B00F0DA80732B00F016
:100D1800D780532B00F03182732B00F02E8216AC53
:100D2800A84D0FCD0FC42B6823604FF47A7314229B
:100D380016A9A54802F0B8F923B0BDE8F08F51789C
:100D4800452901D06529DED19178442901D064294B
:100D5800D9D1D1782C29D6D104320023184609E0FC
:100D680003EB83035B00DBB20B44DBB2303BDBB24B
:100D78000130C0B2115C2C29F2D1013014180022C4
:100D8800104609E002EB82025200D2B20A44D2B203
:100D9800303AD2B20130C0B2215C2C29F2D1002BFA
:100DA8003DD1AAB1012A25D016AC884D0FCD0FC46C
:100DB80095E8030044F8040B24F8021B090C217081
:100DC8004FF47A73172216A97F4802F06DF9B3E73A
:100DD800012204217E4801F0C1F97E4B16AC0FCBED
:100DE80084E80F004FF47A7310222146764802F007
:100DF8005BF9A1E700220421754801F0AFF9764BB1
:100E080016AC0FCB07C424F8023B1B0C23704FF41D
:100E18007A730F2216A96C4802F046F98CE7012B69
:100E28003DD1AAB1012A25D016AC6C4D0FCD0FC407
:100E380095E8030044F8040B24F8021B090C217000
:100E48004FF47A73172216A95F4802F02DF973E759
:100E5800012208215E4801F081F9614B16AC0FCBE5
:100E680084E80F004FF47A7310222146564802F0A6
:100E78001BF961E700220821554801F06FF9594B29
:100E880016AC0FCB07C424F8023B1B0C23704FF49D
:100E98007A730F2216A94C4802F006F94CE716ACF3
:100EA800514D0FCD0FC495E8030044F8040B217091
:100EB8004FF47A73152216A9434802F0F5F83BE778
:100EC8005178452902D065297FF423AF91785229BA
:100ED80002D072297FF41DAFD1782C297FF419AF85
:100EE80004320025284609E005EB85014900C9B20E
:100EF8000B44DBB2303BDDB20130C0B2135C2C2BAB
:100F0800F2D101301418062D09D84FF0000A00223A
:100F18000023CDE9002390469946574634E016ACA5
:100F2800324D0FCD0FC495E8030044F8040B24F8A4
:100F3800021B090C21704FF47A73172216A9224854
:100F480002F0B2F8F8E64FF0000BDA450ED9A6F138
:100F58003000FFF797FA0022254BFFF727FCCDE971
:100F680000010BF1010B5FFA8BFBEEE7DDE90023D3
:100F780040464946FFF73AF9804689460AF1010A90
:100F88005FFA8AFA0137FFB2E65D2C2E32D02E2E98
:100F980015D0BAF1000FD6D10022154B404649466C
:100FA800FFF7DAFA80468946A6F13000FFF76AFAB9
:100FB80042464B46FFF71AF980468946E2E74FF06A
:100FC800010ADFE73C3700081C0100205037000801
:100FD8000010014068370008783700088837000893
:100FE800A0370008B0370008C0370008D837000815
:100FF800000024400022002340464946FFF71EFD1A
:1010080030B900229C4B40464946FFF735FD78B180
:1010180016AC9A4D0FCD0FC495E80F0007C4237086
:101028004FF47A731D2216A9954802F03DF883E61D
:10103800052D1AD8DFE805F0032E455C738A914C1C
:101048002288914B1A808AA3D3E900234046494657
:10105800FFF7ACFB00228D4BFFF77EFA00228C4B8A
:10106800FFF7C4F8FFF712FD208016AC894D0FCDAD
:101078000FC495E8070003C424F8022B120C227051
:101088004FF47A731B2216A97D4802F00DF800F080
:1010980059FC51E67B4C62887B4B5A8074A3D3E998
:1010A800002340464946FFF781FB0022774BFFF7B4
:1010B80053FA0022764BFFF799F8FFF7E7FC6080B8
:1010C800D3E7704CA288704B9A8069A3D3E90023B8
:1010D80040464946FFF76AFB00226C4BFFF73CFA93
:1010E80000226B4BFFF782F8FFF7D0FCA080BCE72B
:1010F800644CE288644BDA805DA3D3E90023404660
:101108004946FFF753FB0022604BFFF725FA002200
:101118005F4BFFF76BF8FFF7B9FCE080A5E7594C88
:101128002289594B1A8152A3D3E9002340464946E4
:10113800FFF73CFB0022554BFFF70EFA0022544BF9
:10114800FFF754F8FFF7A2FC20818EE74D4C628927
:101158004D4B5A8146A3D3E9002340464946FFF741
:1011680025FB0022494BFFF7F7F90022484BFFF710
:101178003DF8FFF78BFC608177E75378452B02D069
:10118800652B7FF4CCAD9378522B02D0722B7FF471
:10119800C6ADD378562B02D0762B7FF4C0AD137929
:1011A8004F2B02D06F2B7FF4BAAD5379532B02D05B
:1011B800732B7FF4B4AD93792C2B7FF4B0ADD41D91
:1011C80030252A4600210AA802F0C8F92A4600213B
:1011D80016A802F0C3F94FF0000B93E0A7F1300016
:1011E800FFF750F900222C4BFFF7E0FA22AB03EB94
:1011F800CB0343E90C010135EDB2AA45EED822AB89
:1012080003EBCB0555E90C2355E91801FEF7EEFF72
:1012180045E918010AF1010A5FFA8AFA0136F6B2BD
:101228003546A75D2C2F39D02E2F1ED0BAF1000FCE
:1012380019D122AB03EBCB050022174B55E9180156
:10124800FFF78AF98046894645E91889A7F13000F1
:10125800FFF718F902460B4640464946FEF7C6FF17
:1012680045E91801DAE70025C7E74FF0010AD5E795
:101278000000000000E0704000807640F037000871
:101288001C010020100100200401002000409F40A4
:1012980000407F40103800080000244022AB03EBD8
:1012A800CB0353E918670022002330463946FFF77D
:1012B800C5FB002841D100222D4B30463946FFF7A7
:1012C800DBFB00283BD101352C442A4D35F81B2087
:1012D800294B23F81B2024A3D3E9002330463946A1
:1012E800FFF764FA0022254BFFF736F90022244B5A
:1012F800FEF77CFFFFF7CAFB25F81B000BF1010B7B
:101308005FFA8BFBBBF1050F03D84FF0000A564676
:1013180086E70023ABB902AC1A4D0FCD0FC495E890
:101328000F0007C423804FF47A731E2202A91648BF
:1013380001F0BAFE00F006FBFEE40123EAE7012310
:10134800E8E702AC114D0FCD0FC495E80F0084E813
:101358000F004FF47A73202202A90B4801F0A4FE73
:10136800EAE400BFAFF300800000000000E0704036
:1013780000807640100100200401002000409F40BA
:1013880000407F402C3800081C0100204C38000821
:1013980072B6FEE700B591B02822002106A802F037
:1013A800DDF800230193029303930493059301222C
:1013B80006924FF4803307930A9202220D920E93FD
:1013C8004FF4E0130F9306A800F0E4FE80B90F2352
:1013D800019302210291002303934FF48062049247
:1013E800059301A801F008F920B911B05DF804FBD4
:1013F800FFF7CEFFFFF7CCFF00B5A3B000F008FC65
:10140800FFF7C8FFFFF71EFC00F032F900F092F971
:1014180000F008FA00F00EFB214C012202212046C0
:1014280000F09CFE00F0C4FA00220221204600F0E1
:1014380095FE0DF1700C1B4C0FCCACE80F0094E836
:1014480003004CF8040BACF8001069252A4616492D
:1014580001A8FFF73BFB154C4FF47A7316221CA921
:10146800204601F021FE4FF47A732A4601A920464E
:1014780001F01AFE01220E49204602F05CF805E050
:101488000C48FFF731FC0C4B00221A800A4BB3F9C9
:101498000030002BF4DB0A2000F0DEFBF6E700BF8B
:1014A800001001406C380008843800081C01002036
:1014B80064010020680100206601002082B00E4B04
:1014C8009A6942F001029A619A6902F00102009257
:1014D800009ADA6942F08052DA61DB6903F08053DE
:1014E8000193019B054A536823F0E06343F00073BE
:1014F800536002B0704700BF001002400000014076
:10150800FEE7FEE7FEE7FEE7FEE770477047704735
:1015180008B500F08FFB08BD08B5024801F0AEFE23
:1015280008BD00BF1C0100207047000084B003689C
:10153800B3F1804F07D0154A934210D0144A934212
:1015480018D004B0704703F50433DA6942F0010299
:10155800DA61DB6903F001030193019BF1E70D4BAD
:10156800DA6942F00202DA61DB6903F002030293EE
:10157800029BE6E7074BDA6942F00402DA61DB69AD
:1015880003F004030393039BDBE700BF0004004060
:10159800000800400010024010B588B000230493F2
:1015A8000593069307930368B3F1804F07D02B4A3E
:1015B800934219D02A4A93423BD008B010BD03F594
:1015C80004339A6942F004029A619B6903F00403A8
:1015D8000093009B0C23049302230593079304A90B
:1015E800204800F09FFCE8E71F4B9A6942F004028C
:1015F8009A619A6902F004020192019A9A6942F08A
:1016080008029A619B6903F008030293029BC023B6
:10161800049302240594079404A9124800F082FC5C
:10162800032304930594079404A9104800F07AFC56
:10163800C3E70D4B9A6942F008029A619B6903F06F
:1016480008030393039B4FF4407304930223059309
:10165800079304A9054800F065FCAEE700040040C4
:10166800000800400008014000100240000C014042
:1016780000B58FB000230A930B930C930D93089336
:101688000993019302930393049305930693079395
:1016980027484FF08042026047224260836044F648
:1016A8001F62C2600361836101F094F968BB4FF463
:1016B80080530A930AA91E4801F096FA40BB1C48B9
:1016C80001F0B4F938BB00230893099308A9184816
:1016D80001F092FB10BB602301934FF4FA7302935D
:1016E800002303930593082201A9114801F002FA87
:1016F800B8B90C2201A90E4801F0FCF9A0B90C48B0
:10170800FFF74AFF0FB05DF804FBFFF741FECEE795
:10171800FFF73EFED3E7FFF73BFED4E7FFF738FEBF
:10172800D9E7FFF735FEE4E7FFF732FEE7E700BF4A
:10173800BC00002000B58FB000230A930B930C93D4
:101748000D930893099301930293039304930593CC
:10175800069307933148324A026047224260836009
:1017680044F61F62C2600361836101F033F9002807
:101778003BD14FF480530A930AA9284801F034FA60
:10178800002835D1254801F051F9002833D100232C
:101798000893099308A9214801F02EFB70BB602328
:1017A80001934FF4FA73029300220392059201A960
:1017B8001A4801F09FF920BB04220DEB02011748DB
:1017C80001F098F900BB082201A9144801F092F928
:1017D800E8B90C2201A9114801F08CF9D0B90F48D9
:1017E800FFF7DAFE0FB05DF804FBFFF7D1FDC0E7A5
:1017F800FFF7CEFDC6E7FFF7CBFDC8E7FFF7C8FD4B
:10180800CDE7FFF7C5FDD7E7FFF7C2FDDBE7FFF739
:10181800BFFDDEE7FFF7BCFDE1E700BF7400002075
:101828000004004000B58FB000230A930B930C937B
:101838000D930893099301930293039304930593DB
:10184800069307932648274A02604722426083602E
:1018580044F61F62C2600361836101F0BBF868BB94
:101868004FF480530A930AA91D4801F0BDF940BB03
:101878001B4801F0DBF838BB00230893099308A93B
:10188800174801F0B9FA10BB602301934FF4FA73BB
:101898000293002303930593082201A9104801F03D
:1018A80029F9B8B90C2201A90D4801F023F9A0B90A
:1018B8000B48FFF771FE0FB05DF804FBFFF768FDFA
:1018C800CEE7FFF765FDD3E7FFF762FDD4E7FFF743
:1018D8005FFDD9E7FFF75CFDE4E7FFF759FDE7E7B0
:1018E8002C00002000080040072824D8DFE800F07A
:1018F80004080C1014181C200F4B1B68D963704780
:101908000D4B1B68196470470C4B1B685963704773
:101918000A4B1B6899637047084B1B68D96370476B
:10192800064B1B6819647047054B1B68D9637047E1
:10193800034B1B6819647047BC000020740000202A
:101948002C00002010B52BE0053B9BB2164820F870
:1019580014309A4201D920F81420134B33F811108F
:101968002046FFF7C1FF00200134E4B2052C13D84C
:1019780021460E4B33F814200B4B33F814309A429F
:10198800F2D0E1D905339BB2074820F814309A42C7
:10199800E3D220F81420E0E728B9052000F05CF92C
:1019A80000240120E2E710BD0401002010010020FE
:1019B80010B51B4C0821204601F0A4F90C21204643
:1019C80001F0A0F9174C0021204601F09BF90421F1
:1019D800204601F097F90821204601F093F90C21DF
:1019E800204601F08FF9104C0821204601F08AF9B1
:1019F8000C21204601F086F900230BE00B4A4FF436
:101A0800FA7122F813100A4A40F6C41122F813108A
:101A18000133DBB2052BF1D9FFF794FF10BD00BFEE
:101A2800BC000020740000202C00002010010020C1
:101A38000401002008B50A480A4B03604FF4E1335B
:101A4800436000238360C36003610C2242618361A9
:101A5800C36101F0F9FA00B908BDFFF799FCFBE78B
:101A68001C0100200038014030B587B000230293E4
:101A780003930493059302681B4B9A4201D007B065
:101A880030BD03F558439A6942F480429A619A69D5
:101A980002F480420092009A9A6942F004029A6124
:101AA8009B6903F004030193019B4FF400730293B5
:101AB80002230393032305930C4D02A9284600F043
:101AC80031FA4FF48063029300240394049402A92A
:101AD800284600F027FA22462146252000F016F96C
:101AE800252000F023F9CAE700380140000801402A
:101AF80008B502681B4B9A4200D008BD1A4A1388E1
:101B0800B2F90020002A09DB13F4804F13D0174ADA
:101B180012780A2A08D0144B00221A80012213498D
:101B2800134801F008FDE8E76FEA43436FEA5343BF
:101B38000D4A1380F2E70D4A12780D2A0DD0C3F32F
:101B48000D010C48425401339BB2074A1380C72B3E
:101B5800E4D9134600221A80E0E743F48043024A9E
:101B68001380DBE700380140660100206401002093
:101B78001C01002068010020FFF7D6FC0B480C4927
:101B88000C4A002302E0D458C4500433C4188C42D1
:101B9800F9D3094A094C002301E013600432A24238
:101BA800FBD301F02BFDFFF727FC70470000002056
:101BB800100000203039000810000020CC0300205D
:101BC800FEE7000010B504460E4B1A784FF47A73FE
:101BD800B3FBF2F30C4A1068B0FBF3F000F0B4F872
:101BE80068B90F2C01D901200AE0002221464FF0E4
:101BF800FF3000F08BF8054B1C60002000E001204E
:101C080010BD00BF040000200000002008000020D4
:101C180008B5074A136843F010031360032000F067
:101C280063F80F20FFF7CEFFFFF748FC002008BD40
:101C380000200240034A1168034B1B780B441360D1
:101C4800704700BF3002002004000020014B1868D4
:101C5800704700BF3002002038B50446FFF7F6FF92
:101C68000546B4F1FF3F02D0044B1B781C44FFF734
:101C7800EDFF401BA042FAD338BD00BF040000208E
:101C8800002808DB0901C9B200F1604000F5614095
:101C980080F80013704700F00F000901C9B2014B2A
:101CA8001954704714ED00E000B500F00700C0F1CA
:101CB800070CBCF1040F28BF4FF0040C031D062BC2
:101CC8000FD9C31E4FF0FF3E0EFA0CF021EA0001B7
:101CD80099400EFA03FE22EA0E0241EA02005DF87C
:101CE80004FB0023EEE70000074AD36823F4E0630F
:101CF8001B041B0C000200F4E060034343F0BF63C5
:101D080043F40033D360704700ED00E010B504469B
:101D1800054BD868C0F30220FFF7C6FF01462046EE
:101D2800FFF7AEFF10BD00BF00ED00E0002807DBA5
:101D380000F01F02400901239340024A42F8203074
:101D4800704700BF00E100E00138B0F1807F0BD29E
:101D58004FF0E0235861054AF02182F82310002053
:101D6800986107221A6170470120704700ED00E072
:101D7800034690F82120D2B2022A06D004228263B8
:101D8800002280F820200120704701680A6822F0AC
:101D98000E020A6001680A6822F001020A60026CF9
:101DA800C06B012101FA02F2426083F82110002081
:101DB80083F820007047000008B590F82130DBB2A6
:101DC800022B03D004238363012008BD0268136833
:101DD80023F00E0313600268136823F001031360F5
:101DE80003684C4A93424ED9783A934224D014322D
:101DF800934230D0143293422FD0143293422FD0D2
:101E0800143293422FD0143293422FD0143293427B
:101E18002FD002F5627293422ED0143293422DD005
:101E2800143293422CD01432934202D04FF48032B1
:101E380003E04FF4805200E00122374B5A6001233F
:101E480080F82130002380F82030436B002B5ED0CF
:101E580098470020B9E71022EFE74FF48072ECE7CB
:101E68004FF48052E9E74FF48032E6E74FF48012EE
:101E7800E3E74FF08072E0E70122DEE71022DCE7BB
:101E88004FF48072D9E7254A934224D01432934202
:101E980025D01432934224D01432934224D01432E1
:101EA800934224D01432934224D01432934224D043
:101EB80002F56272934223D01432934222D0143234
:101EC800934221D01432934202D04FF4803203E07F
:101ED8004FF4805200E00122114B5A60AFE7102204
:101EE800FAE74FF48072F7E74FF48052F4E74FF4C3
:101EF8008032F1E74FF48012EEE74FF08072EBE7A3
:101F08000122E9E71022E7E74FF48072E4E70020B6
:101F18005BE700BF80000240000402400800024066
:101F28000000024070B582B00024A446ACE0854DA4
:101F3800AB4210D007D9844DAB420CD005F58035A3
:101F4800AB4208D013E0A5F58015AB4203D005F5E8
:101F58007025AB4207D18B68002B5FD0012B58D07E
:101F68004261082403E0A5F58015AB42F3D0BEF129
:101F7800FF0F55D806464FEA8C0233680F25954067
:101F880023EA050304FA02F2134333604B6813F0A3
:101F9800805F77D06D4B9A6942F001029A619B6924
:101FA80003F001030193019B4FEA9C02951C684BC7
:101FB80053F825600CF00305AD000F23AB4026EA6B
:101FC8000306644B984232D003F58063984200F0D0
:101FD800978003F58063984200F0948003F580634E
:101FE800984200F0918003F58063984200F08E805B
:101FF80003F58063984218D0062319E0CC68B6E749
:10200800CC680434B3E7CC680834B0E7CC680C3447
:10201800ADE702610824AAE70024A8E70424A6E79C
:10202800061DACF108029200A7E7052300E0002393
:10203800AB4033430232464D45F822304B6813F427
:10204800801F65D0444A936843EA0E0393604B6847
:1020580013F4001F62D0404AD36843EA0E03D360EA
:102068004B6813F4003F5FD03B4A536843EA0E03C2
:1020780053604B6813F4803F5CD0374A136843EAD7
:102088000E0313600CF1010C0B6833FA0CF257D0F5
:10209800012202FA0CF203EA020E32EA0303F1D13A
:1020A8004B68122B3FF643AF122B3FF660AF01A5EA
:1020B80055F823F05F1F0008052000080F200008CE
:1020C80021200008771F0008771F0008771F0008E5
:1020D800771F0008771F0008771F0008771F000880
:1020E800771F0008771F0008771F0008771F000870
:1020F800771F0008771F000809200008152000082E
:10210800012395E7022393E7032391E704238FE74D
:10211800114A936823EA0E03936098E70E4AD3683E
:1021280023EA0E03D3609BE70B4A536823EA0E03A6
:1021380053609EE7084A136823EA0E031360A1E779
:1021480002B070BD000022100000311000100240E3
:102158000000014000080140000401400AB101618B
:10216800704709040161704782B0084B1B68084A30
:10217800A2FB03235B0A00FB03F3019300BF019B4F
:102188005A1E0192002BF9D102B0704700000020BE
:10219800D34D6210002800F0F18170B582B004467A
:1021A800036813F0010F2CD0994B5B6803F00C0304
:1021B800042B1DD0964B5B6803F00C03082B12D040
:1021C8006368B3F5803F41D0002B55D103F18043BC
:1021D80003F504331A6822F480321A601A6822F46C
:1021E80080221A6037E08A4B5B6813F4803FE7D09F
:1021F800874B1B6813F4003F03D06368002B00F083
:10220800BF81236813F0020F75D0814B5B6813F010
:102218000C0F5FD07E4B5B6803F00C03082B54D087
:102228002369002B00F08A807A4B01221A60FFF79D
:102238000DFD0546764B1B6813F0020F75D1FFF7AD
:1022480005FD401B0228F5D903209EE1704A13685A
:1022580043F480331360636843B3FFF7F7FC054624
:102268006B4B1B6813F4003FCBD1FFF7EFFC401B0F
:102278006428F5D9032088E1B3F5A02F09D0644B71
:102288001A6822F480321A601A6822F480221A60CE
:10229800E1E703F18043A3F53C331A6842F4802256
:1022A8001A601A6842F480321A60D4E7FFF7CEFC4D
:1022B8000546574B1B6813F4003FA2D0FFF7C6FC36
:1022C800401B6428F5D903205FE1514B5B6813F488
:1022D800803FA5D14E4B1B6813F0020F03D0236932
:1022E800012B40F04F814A4A136823F0F8036169D3
:1022F80043EAC1031360236813F0080F33D0A369BE
:10230800002B5CD0434B0122C3F88024FFF79EFCCE
:1023180005463F4B5B6A13F0020F21D1FFF796FC8D
:10232800401B0228F5D903202FE1394A136823F00E
:10233800F803616943EAC1031360DCE7354B002207
:102348001A60FFF783FC0546314B1B6813F0020F38
:10235800D1D0FFF77BFC401B0228F5D9032014E1FC
:102368000120FFF701FF236813F0040F00F09680A7
:10237800274BDB6913F0805F34D1254BDA6942F0D3
:102388008052DA61DB6903F080530193019B0125D8
:10239800214B1B6813F4807F26D0E368012B3DD0C6
:1023A800002B53D103F1804303F504331A6A22F05A
:1023B80001021A621A6A22F004021A6233E0154B0B
:1023C8000022C3F88024FFF741FC0546104B5B6AE6
:1023D80013F0020FC7D0FFF739FC401B0228F5D9CC
:1023E8000320D2E00025D3E70B4A136843F4807337
:1023F8001360FFF72BFC0646074B1B6813F4807F1E
:10240800CBD1FFF723FC801B6428F5D90320BCE05F
:102418000010024000004242007000405F4A136A08
:1024280043F001031362E36833B3FFF70FFC06467A
:102438005A4B1B6A13F0020F2FD1FFF707FC801BC2
:1024480041F288339842F3D903209EE0052B09D046
:10245800524B1A6A22F001021A621A6A22F0040226
:102468001A62E0E74D4B1A6A42F004021A621A6ACD
:1024780042F001021A62D6E7FFF7E8FB0646474B2F
:102488001B6A13F0020F08D0FFF7E0FB801B41F234
:1024980088339842F3D9032077E0E5B9E369002B44
:1024A80072D03E4A526802F00C02082A56D0022B1B
:1024B80017D03B4B00221A66FFF7C8FB0446374B80
:1024C8001B6813F0007F47D0FFF7C0FB001B0228F2
:1024D800F5D9032059E0314AD36923F08053D361F9
:1024E800DCE72F4B00221A66FFF7B0FB05462B4BA3
:1024F8001B6813F0007F06D0FFF7A8FB401B0228DB
:10250800F5D9032041E0236AB3F5803F1AD0234967
:102518004B6823F47413226A606A024313434B60C6
:102528001F4B01221A66FFF791FB04461B4B1B68E1
:1025380013F0007F0ED1FFF789FB001B0228F5D9A5
:10254800032022E0154A536823F40033A1680B43A3
:102558005360DCE7002018E0002016E0012B16D0BD
:102568000E4B5B6803F48031226A914211D103F467
:102578007013626A93420ED1002006E00120704772
:10258800012002E0012000E0002002B070BD01201F
:10259800FBE70120F9E70120F7E700BF0010024040
:1025A800000042420F4B5B6803F00C02082A01D07E
:1025B8000D487047C3F383420C49885C13F4803F8D
:1025C8000BD0084B5B68C3F34043094AD35C064A07
:1025D80002FB00F0B0FBF3F07047064B03FB00F082
:1025E800704700BF0010024000127A000C39000842
:1025F8000839000800093D00002800F0A08070B5E7
:102608000D460446524B1B6803F007038B420BD25E
:102618004F4A136823F007030B431360136803F052
:1026280007038B4240F08D80236813F0020F17D008
:1026380013F0040F04D0474A536843F4E06353602F
:10264800236813F0080F04D0424A536843F46053D8
:102658005360404A536823F0F003A1680B4353606A
:10266800236813F0010F31D06368012B20D0022BAF
:1026780025D0384A126812F0020F64D035494A68EA
:1026880022F0030213434B60FFF7E0FA0646314B92
:102698005B6803F00C036268B3EB820F16D0FFF798
:1026A800D5FA801B41F288339842F0D9032045E0DF
:1026B800284A126812F4003FE0D101203EE0254A82
:1026C800126812F0007FD9D1012037E0204B1B6837
:1026D80003F00703AB420AD91D4A136823F0070326
:1026E8002B431360136803F00703AB422DD1236813
:1026F80013F0040F06D0174A536823F4E063E16827
:102708000B435360236813F0080F07D0114A53682E
:1027180023F46053216943EAC1035360FFF742FF82
:102728000C4B5B68C3F303130B4AD35CD8400B4BC9
:1027380018600B4B1868FFF745FA002070BD0120A0
:1027480070470120FAE70120F8E70120F6E700BF0B
:102758000020024000100240F83800080000002065
:1027680008000020014B1868704700BF00000020D7
:1027780008B5FFF7F7FF044B5B68C3F30223034A6E
:10278800D35CD84008BD00BF00100240F0380008F4
:1027980008B5FFF7E7FF044B5B68C3F3C223034A9E
:1027A800D35CD84008BD00BF00100240F0380008D4
:1027B80030B4036A026A22F0010202624268846944
:1027C80024F0730C0C6844EA0C0423F0020C8B68A8
:1027D80043EA0C03114DA84203D005F50065A84251
:1027E80005D123F00803CD682B4323F004030B4DD8
:1027F800A84203D005F50065A84207D122F440722B
:102808004D6945EA020C8A6942EA0C024260846119
:102818004A684263036230BC704700BF002C014025
:1028280030B4036A026A22F4807202624268C469A0
:1028380024F0730C0C6844EA0C0523F400738C68CC
:1028480043EA0423114CA04203D004F50064A042DB
:1028580006D123F40063CC6843EA042323F480639D
:102868000A4CA04203D004F50064A04207D122F428
:1028780040524C6942EA04128C6942EA04124260EE
:10288800C5614A68C263036230BC7047002C0140CE
:1028980030B4036A026A22F4805202624468C26950
:1028A80022F4E6420D6842EA052223F400538D68BB
:1028B80043EA0533094DA84203D005F50065A8424F
:1028C80004D124F480444D6944EA85144460C2610B
:1028D8004A680264036230BC704700BF002C0140A4
:1028E80010B4036A046A24F001040462846924F0C1
:1028F800F00C4CEA021223F00A030B4382610362D4
:1029080010BC704710B4036A046A24F0100404620F
:10291800846924F4704C4CEA023223F0A00343EAA1
:1029280001138261036210BC7047836823F070034F
:102938000B4343F007038360704770470368244ADA
:10294800904212D002F5006290420ED0B0F1804F52
:102958000BD0A2F59832904207D002F580629042DF
:1029680003D002F58062904203D123F070034A68D5
:102978001343174A904212D002F5006290420ED0DB
:10298800B0F1804F0BD0A2F59832904207D002F5F3
:102998008062904203D002F58062904203D123F412
:1029A8004073CA68134323F080034A6913430360E2
:1029B8008B68C3620B688362054B984203D003F5AA
:1029C8000063984201D10B69036301234361704797
:1029D800002C014040B310B5044690F83D30F3B1E7
:1029E800022384F83D30214651F8040BFFF7A6FF77
:1029F800012384F8463084F83E3084F83F3084F868
:102A0800403084F8413084F8423084F8433084F808
:102A1800443084F8453084F83D30002010BD80F8FB
:102A28003C30FEF783FDDBE70120704740B310B56B
:102A3800044690F83D30F3B1022384F83D30214636
:102A480051F8040BFFF77AFF012384F8463084F825
:102A58003E3084F83F3084F8403084F8413084F8C0
:102A6800423084F8433084F8443084F8453084F8A0
:102A78003D30002010BD80F83C30FFF75EFFDBE7FB
:102A88000120704730B4036A026A22F01002026221
:102A98004468826922F4E6420D6842EA052223F07E
:102AA80020038D6843EA0513114DA84203D005F5AC
:102AB8000065A84206D123F08003CD6843EA0513D8
:102AC80023F040030A4DA84203D005F50065A8424B
:102AD80007D124F440644D6944EA85048D6944EAC9
:102AE8008504446082614A688263036230BC70472F
:102AF800002C014038B590F83C30012B66D00446D4
:102B08000D46012380F83C300C2A5AD8DFE802F041
:102B1800075959591B59595930595959440000688E
:102B2800FFF746FE2268936943F008039361226821
:102B3800936923F0040393612268936929690B431D
:102B4800936100203EE00068FFF79CFF22689369CC
:102B580043F4006393612268936923F4806393616B
:102B680022689369296943EA01239361002029E0D7
:102B78000068FFF755FE2268D36943F00803D36164
:102B88002268D36923F00403D3612268D3692969D1
:102B98000B43D361002015E00068FFF779FE226837
:102BA800D36943F40063D3612268D36923F4806353
:102BB800D3612268D369296943EA0123D3610020DC
:102BC80000E00120002384F83C3038BD0220FCE7F7
:102BD80010B4846824F47F4C42EA03220A4342EA90
:102BE8000C02826010BC704790F83C30012B78D002
:102BF80010B50446012380F83C30022380F83D30AC
:102C08000268936823F47F4323F0770393600B688B
:102C1800602B4CD029D8402B54D00CD9502B22D122
:102C2800CA6849680068FFF75BFE50212068FFF713
:102C38007CFE002005E0202B0DD009D9302B0AD0CE
:102C48000120012384F83D30002384F83C3010BD76
:102C58000BB1102B05D119462068FFF766FE00203E
:102C6800EFE70120EDE70120EBE7B3F5805F34D013
:102C7800B3F5005F0CD1CB684A6889680068FFF734
:102C8800A7FF2268936843F4804393600020D8E745
:102C9800702B24D1CB684A6889680068FFF798FFD1
:102CA8002268936843F0770393600020C9E7CA68F5
:102CB80049680068FFF726FE60212068FFF735FEA7
:102CC8000020BEE7CA6849680068FFF709FE40218E
:102CD8002068FFF72AFE0020B3E70020B1E70120B3
:102CE800AFE70220704701F01F014FF0010C0CFA0A
:102CF80001FC036A23EA0C030362036A8A40134354
:102D08000362704710B50446084600293AD194F882
:102D18003E30DBB2013B18BF0123002B66D10028EF
:102D280049D1022384F83E30012201462068FFF78A
:102D3800DAFF23682F4A934203D002F500629342D8
:102D480003D15A6C42F400425A642368294A9342D8
:102D580041D002F5006293423DD0B3F1804F3AD0A2
:102D6800A2F59832934236D002F58062934232D06F
:102D780002F5806293422ED01A6842F001021A606E
:102D8800002032E0042908D008290DD094F84130F9
:102D9800DBB2013B18BF0123BFE794F83F30DBB239
:102DA800013B18BF0123B8E794F84030DBB2013B80
:102DB80018BF0123B1E7042805D0082807D002234B
:102DC80084F84130B0E7022384F83F30ACE70223AF
:102DD80084F84030A8E79A6802F00702062A07D06C
:102DE8001A6842F001021A60002010BD0120FCE7B9
:102DF8000020FAE7002C014090F83C20012A34D04A
:102E080010B40346012280F83C20022280F83D20BD
:102E180002685068946820F0700C086840EA0C005A
:102E280050601A681248824212D000F5006082424F
:102E38000ED0B2F1804F0BD0A0F59830824207D067
:102E480000F58060824203D000F58060824204D1A0
:102E580024F08004496821439160012283F83D20D1
:102E6800002083F83C0010BC70470220704700BF68
:102E7800002C0140026802F10C0353E8003F23F4E0
:102E880090730C3242E800310029F3D1026802F154
:102E9800140353E8003F23F00103143242E80031E1
:102EA8000029F3D1036B012B05D0202380F8423091
:102EB800002303637047026802F10C0353E8003FE4
:102EC80023F010030C3242E800310029F3D1ECE77B
:102ED80090F84130DBB2212B01D002207047836883
:102EE800B3F5805F17D0036A5A1C02621A78036828
:102EF8005A60C38C9BB2013B9BB2C3844BB9026836
:102F0800D36823F08003D3600268D36843F040039A
:102F1800D360002070470369002BE4D1036A1B8843
:102F28000268C3F308035360036A02330362E0E7ED
:102F380010B504460268136923F44053C1680B4373
:102F4800136183680269134342691A430168CB68B5
:102F580023F4B05323F00C031343CB600268536986
:102F680023F4407381690B4353610268134B9A42FF
:102F780020D0FFF7FDFB024602EB820202EB820241
:102F880063689B00B2FBF3F20D48A0FB02314909CC
:102F9800642303FB11231B013233A0FB03035B09EA
:102FA80003F0F00202EB011203F00F03216813444F
:102FB8008B6010BDFFF7ECFB0246DDE700380140EF
:102FC8001F85EB512DE9F84305460F4616469946ED
:102FD800DDF820802B681C6837EA04040CBF012444
:102FE8000024B4422DD1B8F1FF3FF3D0B8F1000F5F
:102FF80005D0FEF72BFEA0EB09004045EAD92A6868
:1030080002F10C0353E8003F23F4D0730C3242E87A
:1030180000310029F3D12A6802F1140353E8003F74
:1030280023F00103143242E800310029F3D12023B0
:1030380085F8413085F84230002385F84030032078
:1030480000E00020BDE8F88360B310B5044690F8AE
:10305800413013B3242384F841302268D36823F421
:103068000053D3602046FFF763FF2268136923F4F7
:10307800904313612268536923F02A03536122683D
:10308800D36843F40053D36000206064202384F89D
:10309800413084F84230606310BD80F84030FEF75C
:1030A800E3FCD7E7012070472DE9F04182B01E46C6
:1030B80090F84130DBB2202B4BD104460D469046A8
:1030C80000294AD00AB9012044E00023436421239F
:1030D80080F84130FEF7BAFD0746A4F82480A4F82A
:1030E8002680A368B3F5805F02D04FF000080FE098
:1030F8002369FBB14FF000080AE038F8023B226868
:10310800C3F308035360E28C92B2013A92B2E284AC
:10311800E38C9BB28BB100963B460022802120466F
:10312800FFF750FFD8B9002DE7D015F8012B236819
:103138005A60E8E7A8460025EAE700963B460022E1
:1031480040212046FFF73EFF58B9202384F841303C
:1031580000E0022002B0BDE8F0810120FAE7032078
:10316800F8E70320F6E7704708B50168CA6822F057
:103178004002CA60202280F84120FFF7F4FF0020B7
:1031880008BD704708B5406A0023C385C384FFF7AC
:10319800F8FF08BD704790F84230DBB2222B69D1A6
:1031A8008368B3F5805F4FD0826AB3F5805F04D03F
:1031B800002B56D10369002B53D103685B68137049
:1031C800836A01338362C38D9BB2013B9BB2C38583
:1031D800002B51D100B583B00268D36823F02003D7
:1031E800D3600268D36823F48073D360026853699C
:1031F80023F001035361202380F842300023436306
:10320800036B012B33D100230363026802F10C0323
:1032180053E8003F23F010030C3242E80031002944
:10322800F3D103681A6812F0100F06D00022019239
:103238001A6801925B680193019B818DFFF7AAFFD1
:10324800002003B05DF804FB0269002AACD1826A51
:1032580003685B68C3F308031380836A02338362DD
:10326800B1E703685B6803F07F031370A8E7FEF714
:103278003FFCE5E7022070470020704710B582B098
:10328800044602681368D068516913F00F0F09D11A
:1032980013F0200F0CD010F0200F09D02046FFF7B4
:1032A8007AFF16E011F0010115D110F4907F12D1C8
:1032B800216B012979D013F0800F03D010F0800F13
:1032C80040F0138113F0400F03D010F0400F40F08E
:1032D800108102B010BD13F0010F06D010F4807FEA
:1032E80003D0626C42F00102626413F0040F04D050
:1032F80019B1626C42F00202626413F0020F04D04A
:1033080019B1626C42F00402626413F0080F07D02E
:1033180010F0200F00D119B1626C42F0080262640B
:10332800626C002AD5D013F0200F02D010F0200FC5
:1033380029D123685B6903F04003626C12F0080F1F
:1033480000D163B32046FFF795FD23685B6913F04E
:10335800400F20D0226802F1140353E8003F23F005
:103368004003143242E800310029F3D1E36B73B112
:10337800624A5A63E06BFEF71FFD0028A9D0E06B94
:10338800436B9847A5E72046FFF705FFD1E720469E
:10339800FFF7F7FE9DE72046FFF7F3FE99E7204683
:1033A800FFF7EFFE0023636493E713F0100F82D05A
:1033B80010F0100F3FF47FAF0023019313680193BF
:1033C80053680193019B536913F0400F51D0E26B8E
:1033D80013685B689BB2002B3FF47BAFA18D9942C9
:1033E8007FF677AFE3859369202B37D0226802F107
:1033F8000C0353E8003F23F480730C3242E8003199
:103408000029F3D1226802F1140353E8003F23F0A6
:103418000103143242E800310029F3D1226802F195
:10342800140353E8003F23F04003143242E800310C
:103438000029F3D1202384F8423000232363226833
:1034480002F10C0353E8003F23F010030C3242E86A
:1034580000310029F3D1E06BFEF78AFC0223636395
:10346800A18DE38D9BB2C91A89B22046FFF792FE5F
:103478002FE7A18DE38D9BB2C91A89B2E38D9BB268
:10348800002B3FF426AF00293FF423AF226802F156
:103498000C0353E8003F23F490730C3242E80030E9
:1034A8000028F3D1226802F1140353E8003F23F007
:1034B8000103143242E800300028F3D1202384F8B5
:1034C800423000232363226802F10C0353E8003FD3
:1034D80023F010030C3242E800300028F3D1022315
:1034E80063632046FFF756FEF3E62046FFF7F0FC3D
:1034F800EFE62046FFF738FEEBE600BF8D31000807
:1035080081628285C28500234364222380F8423089
:10351800036923B10268D36843F48073D3600268F7
:10352800536943F0010353610268D36843F02003F1
:10353800D3600020704708B590F84230DBB2202BEA
:1035480008D149B10AB9012008BD00230363FFF778
:10355800D7FFF9E70220F7E70120F5E770B58607FE
:1035680047D0541E002A3ED00346CAB201E0013CAF
:1035780039D303F8012B9D07F9D1032C2CD9CDB2EF
:1035880005EB05250F2C1A4605EB054534D9A4F1A2
:10359800100C2CF00F0603F1100EB6444FEA1C1C59
:1035A800156055609560D56010327245F8D10CF100
:1035B800010214F00C0F03EB021204F00F0C13D0ED
:1035C800ACF1040323F003030433134442F8045B0F
:1035D8009A42FBD10CF003042CB1C9B21C4403F885
:1035E800011B9C42FBD170BD64461346002CF4D1EC
:1035F800F9E703461446C0E7A446E1E770B50F4B68
:103608000F4DAB42A3EB050607D00024B61055F8C2
:10361800043B01349847A642F9D800F07FF8094DD9
:10362800094B5E1BAB424FEAA60606D0002455F8AC
:10363800043B01349847A642F9D870BD24390008E4
:1036480024390008243900082C390008704700BFC5
:10365800704700BF024B13B1024800F005B870472D
:10366800000000007D360008002301461A4618466F
:1036780000F014B838B5074D074C2C1BA41005D022
:10368800013C55F8043D9847002CF9D1BDE8384075
:1036980000F04AB8303900082C3900082DE9F84301
:1036A8001B4D0646286898460F469146FFF7CEFF01
:1036B800184B1C681CB3286865681F2D22DC4EB99E
:1036C8006B1C0235636044F82570FFF7C1FF0020CA
:1036D800BDE8F883012304EB8501C1F88890D4F88C
:1036E8008821AB401A43022EC4F88821C1F808810A
:1036F800E6D1D4F88C211A43C4F88C21E0E7064CB3
:103708001C60D8E7FFF7A4FF4FF0FF30E0E700BFE9
:103718000C000020380200203C020020F8B500BF51
:10372800F8BC08BC9E467047F8B500BFF8BC08BC9A
:043738009E467047F2
:10373C000D0A556E6B6E6F776E20436F6D6D616EFB
:10374C00640D0A000D0A4C4544303A2053746174E0
:10375C007573204572726F720D0A00000D0A4C458C
:10376C0044303A20436C6F73650D0A000D0A4C45CA
:10377C0044303A204F70656E0D0A00000D0A4C451E
:10378C0044313A20537461747573204572726F72B0
:10379C000D0A00000D0A4C4544313A20436C6F73FE
:1037AC00650D0A000D0A4C4544313A204F70656E88
:1037BC000D0A00000D0A4C45443A20496E646578A8
:1037CC00204572726F720D0A000000000D0A5345FD
:1037DC0052564F3A20496E646578204572726F726A
:1037EC000D0A00000D0A5345523A20416E676C6574
:1037FC002053657474696E67204572726F720D0A7E
:10380C00000000000D0A5345523A204D6F7665209A
:10381C005375636365737366756C6C790D0A000080
:10382C000D0A534552564F533A204D6F766520532F
:10383C0075636365737366756C6C790D0A000000B3
:10384C000D0A534552564F533A20416E676C652012
:10385C0053657474696E67204572726F720D0A003D
:10386C000D0A496E697420537563636573736675CD
:10387C006C6C790D0A0000000D0A547970653A20C1
:10388C00222B46554E4354494F4E2C504152414DDC
:10389C0045544552312C504152414D4554455232BC
:1038AC002C2E2E2E2220746F20636F6D6D616E6432
:1038BC002074686520626F6172642E20452E672E1D
:1038CC00222B4C45442C312C312C222063616E2050
:1038DC006F70656E20746865204C4544312E0D0A5E
:1038EC0000000000000000000102030400000000C2
:1038FC000000000001020304060708090102000091
:10390C0002030405060708090A0B0C0D0E0F101014
:08391C00B8D1FF7F010000009B
:083924005D360008290C0008C3
:04392C00010C000882
:103930000024F40001000000100000003402002008
:0400000508001B8153
:00000001FF
